{
  "address": "0x9B4399dbbC464fC903b6F120F184B85C381F10C0",
  "abi": [
    {
      "constant": true,
      "inputs": [],
      "name": "governor",
      "outputs": [
        {
          "name": "",
          "type": "address"
        }
      ],
      "payable": false,
      "stateMutability": "view",
      "type": "function"
    },
    {
      "constant": true,
      "inputs": [
        {
          "name": "user",
          "type": "address"
        },
        {
          "name": "",
          "type": "address"
        },
        {
          "name": "",
          "type": "bytes4"
        }
      ],
      "name": "canCall",
      "outputs": [
        {
          "name": "",
          "type": "bool"
        }
      ],
      "payable": false,
      "stateMutability": "view",
      "type": "function"
    },
    {
      "inputs": [
        {
          "name": "governorAddress",
          "type": "address"
        }
      ],
      "payable": false,
      "stateMutability": "nonpayable",
      "type": "constructor"
    }
  ],
  "transactionHash": "0xfeba3e5f8c745b28ac67fcf0e8b977ef2d7452ef68a5a5995d34c3a151fbc12b",
  "args": [
    "0x72b957E4eF406b02D18EC0C4607236dC84e21b94"
  ],
  "numDeployments": 1,
  "solcInputHash": "01d37210bedbb925a27930968cc6c9d8",
  "bytecode": "0x608060405234801561001057600080fd5b5060405160208061023e833981016040525160008054600160a060020a03909216600160a060020a03199092169190911790556101ec806100526000396000f30060806040526004361061004b5763ffffffff7c01000000000000000000000000000000000000000000000000000000006000350416630c340a248114610050578063b70096131461008e575b600080fd5b34801561005c57600080fd5b506100656100fb565b6040805173ffffffffffffffffffffffffffffffffffffffff9092168252519081900360200190f35b34801561009a57600080fd5b506100e773ffffffffffffffffffffffffffffffffffffffff600435811690602435167fffffffff0000000000000000000000000000000000000000000000000000000060443516610117565b604080519115158252519081900360200190f35b60005473ffffffffffffffffffffffffffffffffffffffff1681565b60008054604080517fd994d6d500000000000000000000000000000000000000000000000000000000815273ffffffffffffffffffffffffffffffffffffffff87811660048301529151919092169163d994d6d591602480830192602092919082900301818787803b15801561018c57600080fd5b505af11580156101a0573d6000803e3d6000fd5b505050506040513d60208110156101b657600080fd5b50519493505050505600a165627a7a72305820abbcb83a4503290946fc71a43f13af2c3e333fc35cfa7f14946276dbec8966010029",
  "devdoc": {
    "methods": {}
  },
  "userdoc": {
    "methods": {}
  }
}