{
  "address": "0x823179eDB6C0862f34E9036E0058311cB6F9E175",
  "abi": [
    {
      "constant": false,
      "inputs": [
        {
          "name": "owner_",
          "type": "address"
        }
      ],
      "name": "setOwner",
      "outputs": [],
      "payable": false,
      "stateMutability": "nonpayable",
      "type": "function"
    },
    {
      "constant": false,
      "inputs": [],
      "name": "poke",
      "outputs": [],
      "payable": false,
      "stateMutability": "nonpayable",
      "type": "function"
    },
    {
      "constant": true,
      "inputs": [],
      "name": "compute",
      "outputs": [
        {
          "name": "",
          "type": "bytes32"
        },
        {
          "name": "",
          "type": "bool"
        }
      ],
      "payable": false,
      "stateMutability": "view",
      "type": "function"
    },
    {
      "constant": false,
      "inputs": [
        {
          "name": "wat",
          "type": "address"
        }
      ],
      "name": "setPriceFeeder",
      "outputs": [],
      "payable": false,
      "stateMutability": "nonpayable",
      "type": "function"
    },
    {
      "constant": false,
      "inputs": [
        {
          "name": "wat",
          "type": "address"
        }
      ],
      "name": "unset",
      "outputs": [],
      "payable": false,
      "stateMutability": "nonpayable",
      "type": "function"
    },
    {
      "constant": true,
      "inputs": [
        {
          "name": "",
          "type": "address"
        }
      ],
      "name": "indexes",
      "outputs": [
        {
          "name": "",
          "type": "bytes12"
        }
      ],
      "payable": false,
      "stateMutability": "view",
      "type": "function"
    },
    {
      "constant": true,
      "inputs": [],
      "name": "next",
      "outputs": [
        {
          "name": "",
          "type": "bytes12"
        }
      ],
      "payable": false,
      "stateMutability": "view",
      "type": "function"
    },
    {
      "constant": true,
      "inputs": [],
      "name": "read",
      "outputs": [
        {
          "name": "",
          "type": "bytes32"
        }
      ],
      "payable": false,
      "stateMutability": "view",
      "type": "function"
    },
    {
      "constant": true,
      "inputs": [],
      "name": "peek",
      "outputs": [
        {
          "name": "",
          "type": "bytes32"
        },
        {
          "name": "",
          "type": "bool"
        }
      ],
      "payable": false,
      "stateMutability": "view",
      "type": "function"
    },
    {
      "constant": true,
      "inputs": [
        {
          "name": "",
          "type": "bytes12"
        }
      ],
      "name": "values",
      "outputs": [
        {
          "name": "",
          "type": "address"
        }
      ],
      "payable": false,
      "stateMutability": "view",
      "type": "function"
    },
    {
      "constant": false,
      "inputs": [
        {
          "name": "min_",
          "type": "uint96"
        }
      ],
      "name": "setMin",
      "outputs": [],
      "payable": false,
      "stateMutability": "nonpayable",
      "type": "function"
    },
    {
      "constant": false,
      "inputs": [
        {
          "name": "authority_",
          "type": "address"
        }
      ],
      "name": "setAuthority",
      "outputs": [],
      "payable": false,
      "stateMutability": "nonpayable",
      "type": "function"
    },
    {
      "constant": true,
      "inputs": [],
      "name": "owner",
      "outputs": [
        {
          "name": "",
          "type": "address"
        }
      ],
      "payable": false,
      "stateMutability": "view",
      "type": "function"
    },
    {
      "constant": false,
      "inputs": [],
      "name": "void",
      "outputs": [],
      "payable": false,
      "stateMutability": "nonpayable",
      "type": "function"
    },
    {
      "constant": true,
      "inputs": [],
      "name": "has",
      "outputs": [
        {
          "name": "",
          "type": "bool"
        }
      ],
      "payable": false,
      "stateMutability": "view",
      "type": "function"
    },
    {
      "constant": false,
      "inputs": [
        {
          "name": "pos",
          "type": "bytes12"
        },
        {
          "name": "wat",
          "type": "address"
        }
      ],
      "name": "set",
      "outputs": [],
      "payable": false,
      "stateMutability": "nonpayable",
      "type": "function"
    },
    {
      "constant": true,
      "inputs": [],
      "name": "authority",
      "outputs": [
        {
          "name": "",
          "type": "address"
        }
      ],
      "payable": false,
      "stateMutability": "view",
      "type": "function"
    },
    {
      "constant": false,
      "inputs": [
        {
          "name": "pos",
          "type": "bytes12"
        }
      ],
      "name": "unset",
      "outputs": [],
      "payable": false,
      "stateMutability": "nonpayable",
      "type": "function"
    },
    {
      "constant": false,
      "inputs": [
        {
          "name": "next_",
          "type": "bytes12"
        }
      ],
      "name": "setNext",
      "outputs": [],
      "payable": false,
      "stateMutability": "nonpayable",
      "type": "function"
    },
    {
      "constant": true,
      "inputs": [],
      "name": "min",
      "outputs": [
        {
          "name": "",
          "type": "uint96"
        }
      ],
      "payable": false,
      "stateMutability": "view",
      "type": "function"
    },
    {
      "inputs": [],
      "payable": false,
      "stateMutability": "nonpayable",
      "type": "constructor"
    },
    {
      "anonymous": false,
      "inputs": [
        {
          "indexed": false,
          "name": "val",
          "type": "bytes32"
        }
      ],
      "name": "LogValue",
      "type": "event"
    },
    {
      "anonymous": true,
      "inputs": [
        {
          "indexed": true,
          "name": "sig",
          "type": "bytes4"
        },
        {
          "indexed": true,
          "name": "guy",
          "type": "address"
        },
        {
          "indexed": true,
          "name": "foo",
          "type": "bytes32"
        },
        {
          "indexed": true,
          "name": "bar",
          "type": "bytes32"
        },
        {
          "indexed": false,
          "name": "wad",
          "type": "uint256"
        },
        {
          "indexed": false,
          "name": "fax",
          "type": "bytes"
        }
      ],
      "name": "LogNote",
      "type": "event"
    },
    {
      "anonymous": false,
      "inputs": [
        {
          "indexed": true,
          "name": "authority",
          "type": "address"
        }
      ],
      "name": "LogSetAuthority",
      "type": "event"
    },
    {
      "anonymous": false,
      "inputs": [
        {
          "indexed": true,
          "name": "owner",
          "type": "address"
        }
      ],
      "name": "LogSetOwner",
      "type": "event"
    }
  ],
  "transactionHash": "0x68d654b6f357fffdd5036e6796d0d3503f52fbf0fd8e796204fc02dcf7f970f8",
  "args": [],
  "numDeployments": 1,
  "solcInputHash": "fbdb5830c2a76a42179ec7928eecd3ef",
  "bytecode": "0x608060405260058054606060020a60c060020a03196001606060020a0319909116600117166c0100000000000000000000000017905534801561004157600080fd5b5060018054600160a060020a031916339081179091556040517fce241d7ca1f669fee44b6fc00b8eba2df3bb514eed0f6f668f8f89096e81ed9490600090a26117b88061008f6000396000f3006080604052600436106101115763ffffffff7c010000000000000000000000000000000000000000000000000000000060003504166313af4035811461011657806318178358146101465780631a43c3381461015b5780631d844c2d146101895780632966d1b9146101b75780632db78d93146101e55780634c8fe5261461024857806357de26a41461025d57806359e02dd714610284578063651dd0de146102995780636ba5ef0d146102fc5780637a9e5e4b146103225780638da5cb5b14610350578063ac4c25b214610365578063b689d5ac1461037a578063beb38b43146103a3578063bf7e214f146103f6578063e0a1fdad1461040b578063f2c5925d14610445578063f88979451461047f575b600080fd5b34801561012257600080fd5b5061014473ffffffffffffffffffffffffffffffffffffffff600435166104b5565b005b34801561015257600080fd5b50610144610563565b34801561016757600080fd5b50610170610624565b6040805192835290151560208301528051918290030190f35b34801561019557600080fd5b5061014473ffffffffffffffffffffffffffffffffffffffff60043516610b42565b3480156101c357600080fd5b5061014473ffffffffffffffffffffffffffffffffffffffff60043516610cdf565b3480156101f157600080fd5b5061021373ffffffffffffffffffffffffffffffffffffffff60043516610def565b604080517fffffffffffffffffffffffff00000000000000000000000000000000000000009092168252519081900360200190f35b34801561025457600080fd5b50610213610e18565b34801561026957600080fd5b50610272610e35565b60408051918252519081900360200190f35b34801561029057600080fd5b50610170610e76565b3480156102a557600080fd5b506102d37fffffffffffffffffffffffff000000000000000000000000000000000000000060043516610ea8565b6040805173ffffffffffffffffffffffffffffffffffffffff9092168252519081900360200190f35b34801561030857600080fd5b506101446bffffffffffffffffffffffff60043516610ed0565b34801561032e57600080fd5b5061014473ffffffffffffffffffffffffffffffffffffffff60043516610fdd565b34801561035c57600080fd5b506102d3611087565b34801561037157600080fd5b506101446110a3565b34801561038657600080fd5b5061038f611106565b604080519115158252519081900360200190f35b3480156103af57600080fd5b506101447fffffffffffffffffffffffff00000000000000000000000000000000000000006004351660243573ffffffffffffffffffffffffffffffffffffffff16611123565b34801561040257600080fd5b506102d36113bd565b34801561041757600080fd5b506101447fffffffffffffffffffffffff0000000000000000000000000000000000000000600435166113d9565b34801561045157600080fd5b506101447fffffffffffffffffffffffff000000000000000000000000000000000000000060043516611490565b34801561048b57600080fd5b506104946115a9565b604080516bffffffffffffffffffffffff9092168252519081900360200190f35b6104e3336000357fffffffff00000000000000000000000000000000000000000000000000000000166115cd565b15156104ee57600080fd5b600180547fffffffffffffffffffffffff00000000000000000000000000000000000000001673ffffffffffffffffffffffffffffffffffffffff83811691909117918290556040519116907fce241d7ca1f669fee44b6fc00b8eba2df3bb514eed0f6f668f8f89096e81ed9490600090a250565b60008061056e610624565b600280547fffffffffffffffffffffffffffffffff00000000000000000000000000000000166fffffffffffffffffffffffffffffffff8416177fffffffffffffffffffffffffffffff00ffffffffffffffffffffffffffffffff16700100000000000000000000000000000000831515021790556040805183815290519294509092507f296ba4ca62c6c21c95e828080cb8aec7481b71390585605300a8a76f9e95b527916020918190039190910190a15050565b600080606060008060008060008060008060006001600560009054906101000a90047401000000000000000000000000000000000000000002740100000000000000000000000000000000000000009004036bffffffffffffffffffffffff166040519080825280602002602001820160405280156106ad578160200160208202803883390190505b50995060009850600197505b60055474010000000000000000000000000000000000000000908102046bffffffffffffffffffffffff90811690891610156109ce577fffffffffffffffffffffffff00000000000000000000000000000000000000007401000000000000000000000000000000000000000089021660009081526003602052604090205473ffffffffffffffffffffffffffffffffffffffff16156109c3577401000000000000000000000000000000000000000088027fffffffffffffffffffffffff0000000000000000000000000000000000000000166000908152600360205260408082205481517f59e02dd7000000000000000000000000000000000000000000000000000000008152825173ffffffffffffffffffffffffffffffffffffffff909216936359e02dd79360048084019491939192918390030190829087803b15801561080457600080fd5b505af1158015610818573d6000803e3d6000fd5b505050506040513d604081101561082e57600080fd5b508051602090910151909750955085156109c3576bffffffffffffffffffffffff8916158061088557508960018a036bffffffffffffffffffffffff1681518110151561087757fe5b602090810290910101518710155b156108b657868a8a6bffffffffffffffffffffffff168151811015156108a757fe5b602090810290910101526109bc565b600094505b89856bffffffffffffffffffffffff168151811015156108d757fe5b6020908102909101015187106108f2576001909401936108bb565b8893505b846bffffffffffffffffffffffff16846bffffffffffffffffffffffff1611156109945789600185036bffffffffffffffffffffffff1681518110151561093957fe5b906020019060200201518a856bffffffffffffffffffffffff1681518110151561095f57fe5b602090810290910101527fffffffffffffffffffffffffffffffffffffffffffffffffffffffffffffffff93909301926108f6565b868a866bffffffffffffffffffffffff168151811015156109b157fe5b602090810290910101525b6001909801975b6001909701966106b9565b6005546bffffffffffffffffffffffff6c010000000000000000000000009091048116908a161015610a1a576002546fffffffffffffffffffffffffffffffff169b5060009a50610b34565b600189161515610ad05789600160026bffffffffffffffffffffffff8c1604036bffffffffffffffffffffffff16815181101515610a5457fe5b6020908102909101015191508960026bffffffffffffffffffffffff8b16046bffffffffffffffffffffffff16815181101515610a8d57fe5b602090810290910101519050610ac9610abb6fffffffffffffffffffffffffffffffff808516908416611722565b671bc16d674ec80000611732565b9250610b2c565b8960026bffffffffffffffffffffffff7fffffffffffffffffffffffffffffffffffffffffffffffffffffffffffffffff8c0116046bffffffffffffffffffffffff16815181101515610b1f57fe5b9060200190602002015192505b8260019b509b505b505050505050505050509091565b6000610b72336000357fffffffff00000000000000000000000000000000000000000000000000000000166115cd565b1515610b7d57600080fd5b5060055474010000000000000000000000000000000000000000908102819004600101027fffffffffffffffffffffffff000000000000000000000000000000000000000081161515610bcf57600080fd5b600554604080517fbeb38b43000000000000000000000000000000000000000000000000000000008152740100000000000000000000000000000000000000009092027fffffffffffffffffffffffff000000000000000000000000000000000000000016600483015273ffffffffffffffffffffffffffffffffffffffff8416602483015251309163beb38b4391604480830192600092919082900301818387803b158015610c7e57600080fd5b505af1158015610c92573d6000803e3d6000fd5b5050600580547fffffffffffffffffffffffffffffffffffffffff000000000000000000000000167401000000000000000000000000000000000000000090940493909317909255505050565b610d0d336000357fffffffff00000000000000000000000000000000000000000000000000000000166115cd565b1515610d1857600080fd5b73ffffffffffffffffffffffffffffffffffffffff811660009081526004602081905260408083205481517fbeb38b43000000000000000000000000000000000000000000000000000000008152740100000000000000000000000000000000000000009091027fffffffffffffffffffffffff000000000000000000000000000000000000000016928101929092526024820183905251309263beb38b43926044808201939182900301818387803b158015610dd457600080fd5b505af1158015610de8573d6000803e3d6000fd5b5050505050565b600460205260009081526040902054740100000000000000000000000000000000000000000281565b600554740100000000000000000000000000000000000000000281565b600254600090700100000000000000000000000000000000900460ff161515610e5d57600080fd5b506002546fffffffffffffffffffffffffffffffff1690565b6002546fffffffffffffffffffffffffffffffff81169170010000000000000000000000000000000090910460ff1690565b60036020526000908152604090205473ffffffffffffffffffffffffffffffffffffffff1681565b604080513480825260208201838152369383018490526004359360243593849386933393600080357fffffffff0000000000000000000000000000000000000000000000000000000016949092606082018484808284376040519201829003965090945050505050a4610f67336000357fffffffff00000000000000000000000000000000000000000000000000000000166115cd565b1515610f7257600080fd5b6bffffffffffffffffffffffff83161515610f8c57600080fd5b5050600580546bffffffffffffffffffffffff9092166c01000000000000000000000000027fffffffffffffffff000000000000000000000000ffffffffffffffffffffffff909216919091179055565b61100b336000357fffffffff00000000000000000000000000000000000000000000000000000000166115cd565b151561101657600080fd5b600080547fffffffffffffffffffffffff00000000000000000000000000000000000000001673ffffffffffffffffffffffffffffffffffffffff838116919091178083556040519116917f1abebea81bfa2637f28358c371278fb15ede7ea8dd28d2e03b112ff6d936ada491a250565b60015473ffffffffffffffffffffffffffffffffffffffff1681565b6110d1336000357fffffffff00000000000000000000000000000000000000000000000000000000166115cd565b15156110dc57600080fd5b600280547fffffffffffffffffffffffffffffff00ffffffffffffffffffffffffffffffff169055565b600254700100000000000000000000000000000000900460ff1681565b604080513480825260208201838152369383018490526004359360243593849386933393600080357fffffffff0000000000000000000000000000000000000000000000000000000016949092606082018484808284376040519201829003965090945050505050a46111ba336000357fffffffff00000000000000000000000000000000000000000000000000000000166115cd565b15156111c557600080fd5b7fffffffffffffffffffffffff0000000000000000000000000000000000000000841615156111f357600080fd5b73ffffffffffffffffffffffffffffffffffffffff83161580611272575073ffffffffffffffffffffffffffffffffffffffff831660009081526004602052604090205474010000000000000000000000000000000000000000027fffffffffffffffffffffffff000000000000000000000000000000000000000016155b151561127d57600080fd5b7fffffffffffffffffffffffff0000000000000000000000000000000000000000841660009081526003602090815260408083205473ffffffffffffffffffffffffffffffffffffffff9081168452600490925290912080547fffffffffffffffffffffffffffffffffffffffff0000000000000000000000001690558316156113665773ffffffffffffffffffffffffffffffffffffffff8316600090815260046020526040902080547fffffffffffffffffffffffffffffffffffffffff000000000000000000000000167401000000000000000000000000000000000000000086041790555b50507fffffffffffffffffffffffff00000000000000000000000000000000000000009182166000908152600360205260409020805473ffffffffffffffffffffffffffffffffffffffff90921691909216179055565b60005473ffffffffffffffffffffffffffffffffffffffff1681565b611407336000357fffffffff00000000000000000000000000000000000000000000000000000000166115cd565b151561141257600080fd5b604080517fbeb38b430000000000000000000000000000000000000000000000000000000081527fffffffffffffffffffffffff0000000000000000000000000000000000000000831660048201526000602482018190529151309263beb38b43926044808201939182900301818387803b158015610dd457600080fd5b604080513480825260208201838152369383018490526004359360243593849386933393600080357fffffffff0000000000000000000000000000000000000000000000000000000016949092606082018484808284376040519201829003965090945050505050a4611527336000357fffffffff00000000000000000000000000000000000000000000000000000000166115cd565b151561153257600080fd5b7fffffffffffffffffffffffff00000000000000000000000000000000000000008316151561156057600080fd5b5050600580547fffffffffffffffffffffffffffffffffffffffff0000000000000000000000001674010000000000000000000000000000000000000000909204919091179055565b6005546c0100000000000000000000000090046bffffffffffffffffffffffff1681565b600073ffffffffffffffffffffffffffffffffffffffff83163014156115f55750600161171c565b60015473ffffffffffffffffffffffffffffffffffffffff848116911614156116205750600161171c565b60005473ffffffffffffffffffffffffffffffffffffffff1615156116475750600061171c565b60008054604080517fb700961300000000000000000000000000000000000000000000000000000000815273ffffffffffffffffffffffffffffffffffffffff87811660048301523060248301527fffffffff00000000000000000000000000000000000000000000000000000000871660448301529151919092169263b700961392606480820193602093909283900390910190829087803b1580156116ed57600080fd5b505af1158015611701573d6000803e3d6000fd5b505050506040513d602081101561171757600080fd5b505190505b92915050565b8082018281101561171c57600080fd5b60008161175361174a85670de0b6b3a7640000611764565b60028504611722565b81151561175c57fe5b049392505050565b600081158061178157505080820282828281151561177e57fe5b04145b151561171c57600080fd00a165627a7a72305820c66b80192a0cf8d4dae56c2c08b942defd7ac2e3e8f36d926d3f85e665eba85f0029",
  "devdoc": {
    "methods": {}
  },
  "userdoc": {
    "methods": {}
  }
}