{
  "address": "0xB7A335E733Ad214aB4d5d58fdD0BB715d654a511",
  "abi": [
    {
      "constant": true,
      "inputs": [
        {
          "name": "",
          "type": "address"
        }
      ],
      "name": "isFeed",
      "outputs": [
        {
          "name": "",
          "type": "bool"
        }
      ],
      "payable": false,
      "stateMutability": "view",
      "type": "function"
    },
    {
      "constant": false,
      "inputs": [],
      "name": "create",
      "outputs": [
        {
          "name": "",
          "type": "address"
        }
      ],
      "payable": false,
      "stateMutability": "nonpayable",
      "type": "function"
    },
    {
      "anonymous": false,
      "inputs": [
        {
          "indexed": true,
          "name": "sender",
          "type": "address"
        },
        {
          "indexed": false,
          "name": "feed",
          "type": "address"
        }
      ],
      "name": "Created",
      "type": "event"
    }
  ],
  "transactionHash": "0xa6cf4ab854b3671038900f565d370849646ae7bd872d14905ce02e35e533c809",
  "args": [],
  "numDeployments": 1,
  "solcInputHash": "fbdb5830c2a76a42179ec7928eecd3ef",
  "bytecode": "0x608060405234801561001057600080fd5b50610c74806100206000396000f30060806040526004361061004b5763ffffffff7c0100000000000000000000000000000000000000000000000000000000600035041663e58fdd048114610050578063efc81a8c14610092575b600080fd5b34801561005c57600080fd5b5061007e73ffffffffffffffffffffffffffffffffffffffff600435166100d0565b604080519115158252519081900360200190f35b34801561009e57600080fd5b506100a76100e5565b6040805173ffffffffffffffffffffffffffffffffffffffff9092168252519081900360200190f35b60006020819052908152604090205460ff1681565b6000806100f0610233565b604051809103906000f08015801561010c573d6000803e3d6000fd5b506040805173ffffffffffffffffffffffffffffffffffffffff83168152905191925033917f587ece4cd19692c5be1a4184503d607d45542d2aca0698c0068f52e09ccb541c9181900360200190a2604080517f13af4035000000000000000000000000000000000000000000000000000000008152336004820152905173ffffffffffffffffffffffffffffffffffffffff8316916313af403591602480830192600092919082900301818387803b1580156101c857600080fd5b505af11580156101dc573d6000803e3d6000fd5b50505073ffffffffffffffffffffffffffffffffffffffff8216600090815260208190526040902080547fffffffffffffffffffffffffffffffffffffffffffffffffffffffffffffff0016600117905550905090565b604051610a05806102448339019056006080604081905260018054600160a060020a03191633908117909155907fce241d7ca1f669fee44b6fc00b8eba2df3bb514eed0f6f668f8f89096e81ed9490600090a26109b4806100516000396000f3006080604052600436106100a35763ffffffff7c010000000000000000000000000000000000000000000000000000000060003504166313af403581146100a857806350ed2a2c146100d857806357de26a41461010b57806359e02dd7146101325780635a686699146101605780637a9e5e4b146101ac5780638da5cb5b146101da578063a4dff0a214610218578063ac4c25b214610246578063bf7e214f1461025b575b600080fd5b3480156100b457600080fd5b506100d673ffffffffffffffffffffffffffffffffffffffff60043516610270565b005b3480156100e457600080fd5b506100d66fffffffffffffffffffffffffffffffff6004351663ffffffff6024351661031e565b34801561011757600080fd5b50610120610447565b60408051918252519081900360200190f35b34801561013e57600080fd5b5061014761048b565b6040805192835290151560208301528051918290030190f35b34801561016c57600080fd5b506100d66fffffffffffffffffffffffffffffffff6004351663ffffffff6024351673ffffffffffffffffffffffffffffffffffffffff604435166104c2565b3480156101b857600080fd5b506100d673ffffffffffffffffffffffffffffffffffffffff60043516610663565b3480156101e657600080fd5b506101ef61070d565b6040805173ffffffffffffffffffffffffffffffffffffffff9092168252519081900360200190f35b34801561022457600080fd5b5061022d610729565b6040805163ffffffff9092168252519081900360200190f35b34801561025257600080fd5b506100d6610749565b34801561026757600080fd5b506101ef610817565b61029e336000357fffffffff0000000000000000000000000000000000000000000000000000000016610833565b15156102a957600080fd5b600180547fffffffffffffffffffffffff00000000000000000000000000000000000000001673ffffffffffffffffffffffffffffffffffffffff83811691909117918290556040519116907fce241d7ca1f669fee44b6fc00b8eba2df3bb514eed0f6f668f8f89096e81ed9490600090a250565b604080513480825260208201838152369383018490526004359360243593849386933393600080357fffffffff0000000000000000000000000000000000000000000000000000000016949092606082018484808284376040519201829003965090945050505050a46103b5336000357fffffffff0000000000000000000000000000000000000000000000000000000016610833565b15156103c057600080fd5b50506002805463ffffffff909216700100000000000000000000000000000000027fffffffffffffffffffffffff00000000ffffffffffffffffffffffffffffffff6fffffffffffffffffffffffffffffffff9094167fffffffffffffffffffffffffffffffff000000000000000000000000000000009093169290921792909216179055565b600254600090700100000000000000000000000000000000900463ffffffff16421061047257600080fd5b506002546fffffffffffffffffffffffffffffffff1690565b6002546fffffffffffffffffffffffffffffffff81169170010000000000000000000000000000000090910463ffffffff16421090565b604080513480825260208201838152369383018490526004359360243593849386933393600080357fffffffff0000000000000000000000000000000000000000000000000000000016949092606082018484808284376040519201829003965090945050505050a4610559336000357fffffffff0000000000000000000000000000000000000000000000000000000016610833565b151561056457600080fd5b600280547fffffffffffffffffffffffffffffffff00000000000000000000000000000000166fffffffffffffffffffffffffffffffff8716177fffffffffffffffffffffffff00000000ffffffffffffffffffffffffffffffff1670010000000000000000000000000000000063ffffffff871602179055604080517f18178358000000000000000000000000000000000000000000000000000000008152905173ffffffffffffffffffffffffffffffffffffffff851691631817835891600480830192600092919082900301818387803b15801561064457600080fd5b505af1158015610658573d6000803e3d6000fd5b505050505050505050565b610691336000357fffffffff0000000000000000000000000000000000000000000000000000000016610833565b151561069c57600080fd5b600080547fffffffffffffffffffffffff00000000000000000000000000000000000000001673ffffffffffffffffffffffffffffffffffffffff838116919091178083556040519116917f1abebea81bfa2637f28358c371278fb15ede7ea8dd28d2e03b112ff6d936ada491a250565b60015473ffffffffffffffffffffffffffffffffffffffff1681565b600254700100000000000000000000000000000000900463ffffffff1681565b604080513480825260208201838152369383018490526004359360243593849386933393600080357fffffffff0000000000000000000000000000000000000000000000000000000016949092606082018484808284376040519201829003965090945050505050a46107e0336000357fffffffff0000000000000000000000000000000000000000000000000000000016610833565b15156107eb57600080fd5b5050600280547fffffffffffffffffffffffff00000000ffffffffffffffffffffffffffffffff169055565b60005473ffffffffffffffffffffffffffffffffffffffff1681565b600073ffffffffffffffffffffffffffffffffffffffff831630141561085b57506001610982565b60015473ffffffffffffffffffffffffffffffffffffffff8481169116141561088657506001610982565b60005473ffffffffffffffffffffffffffffffffffffffff1615156108ad57506000610982565b60008054604080517fb700961300000000000000000000000000000000000000000000000000000000815273ffffffffffffffffffffffffffffffffffffffff87811660048301523060248301527fffffffff00000000000000000000000000000000000000000000000000000000871660448301529151919092169263b700961392606480820193602093909283900390910190829087803b15801561095357600080fd5b505af1158015610967573d6000803e3d6000fd5b505050506040513d602081101561097d57600080fd5b505190505b929150505600a165627a7a72305820f49369329ce216fe849b5318a4969f9f7427a7b2f773297622edaf22e71557e40029a165627a7a72305820cb842261ae36150a418b5d5f77fc2b55f179418a85a9c69f0ccb441c89bd4f0e0029",
  "devdoc": {
    "methods": {}
  },
  "userdoc": {
    "methods": {}
  }
}